{
  "contractName": "BetFactory",
  "abi": [
    {
      "inputs": [],
      "stateMutability": "payable",
      "type": "constructor",
      "payable": true
    },
    {
      "inputs": [
        {
          "internalType": "uint256",
          "name": "",
          "type": "uint256"
        }
      ],
      "name": "_betIdToDetails",
      "outputs": [
        {
          "internalType": "uint256",
          "name": "betIndex",
          "type": "uint256"
        },
        {
          "internalType": "address",
          "name": "initiator",
          "type": "address"
        },
        {
          "internalType": "address",
          "name": "location",
          "type": "address"
        }
      ],
      "stateMutability": "view",
      "type": "function",
      "constant": true
    },
    {
      "inputs": [
        {
          "internalType": "uint256",
          "name": "",
          "type": "uint256"
        }
      ],
      "name": "_userBets",
      "outputs": [
        {
          "internalType": "uint256",
          "name": "betIndex",
          "type": "uint256"
        },
        {
          "internalType": "address",
          "name": "initiator",
          "type": "address"
        },
        {
          "internalType": "address",
          "name": "location",
          "type": "address"
        }
      ],
      "stateMutability": "view",
      "type": "function",
      "constant": true
    },
    {
      "inputs": [
        {
          "internalType": "string",
          "name": "_name",
          "type": "string"
        },
        {
          "internalType": "address",
          "name": "_keyMaster",
          "type": "address"
        },
        {
          "internalType": "uint256",
          "name": "_fee",
          "type": "uint256"
        }
      ],
      "name": "createBet",
      "outputs": [],
      "stateMutability": "payable",
      "type": "function",
      "payable": true
    },
    {
      "inputs": [],
      "name": "getBalance",
      "outputs": [
        {
          "internalType": "uint256",
          "name": "",
          "type": "uint256"
        }
      ],
      "stateMutability": "view",
      "type": "function",
      "constant": true
    },
    {
      "inputs": [],
      "name": "allBets",
      "outputs": [
        {
          "components": [
            {
              "internalType": "uint256",
              "name": "betIndex",
              "type": "uint256"
            },
            {
              "internalType": "address",
              "name": "initiator",
              "type": "address"
            },
            {
              "internalType": "address",
              "name": "location",
              "type": "address"
            }
          ],
          "internalType": "struct BetFactory.UserBet[]",
          "name": "",
          "type": "tuple[]"
        }
      ],
      "stateMutability": "view",
      "type": "function",
      "constant": true
    }
  ],
  "bytecode": "0x60806040526124ab806100136000396000f3fe608060405260043610620000505760003560e01c806312065fe01462000055578063189949a91462000085578063d1b3e19c14620000a5578063d706c75614620000eb578063d73d6ec51462000131575b600080fd5b3480156200006257600080fd5b506200006d62000161565b6040516200007c919062000924565b60405180910390f35b620000a360048036038101906200009d9190620006b0565b62000169565b005b348015620000b257600080fd5b50620000d16004803603810190620000cb91906200071f565b620003e2565b604051620000e29392919062000941565b60405180910390f35b348015620000f857600080fd5b506200011760048036038101906200011191906200071f565b6200045d565b604051620001289392919062000941565b60405180910390f35b3480156200013e57600080fd5b5062000149620004c7565b60405162000158919062000900565b60405180910390f35b600047905090565b8173ffffffffffffffffffffffffffffffffffffffff163373ffffffffffffffffffffffffffffffffffffffff161415620001a357600080fd5b60003414620003d8576000343385853086604051620001c29062000602565b620001d29594939291906200089c565b6040518091039082f0905080158015620001f0573d6000803e3d6000fd5b509050620001ff6000620005de565b60006200020d6000620005f4565b9050600060405180606001604052808381526020013373ffffffffffffffffffffffffffffffffffffffff1681526020018473ffffffffffffffffffffffffffffffffffffffff16815250905080600160008481526020019081526020016000206000820151816000015560208201518160010160006101000a81548173ffffffffffffffffffffffffffffffffffffffff021916908373ffffffffffffffffffffffffffffffffffffffff16021790555060408201518160020160006101000a81548173ffffffffffffffffffffffffffffffffffffffff021916908373ffffffffffffffffffffffffffffffffffffffff16021790555090505060028190806001815401808255809150506001900390600052602060002090600302016000909190919091506000820151816000015560208201518160010160006101000a81548173ffffffffffffffffffffffffffffffffffffffff021916908373ffffffffffffffffffffffffffffffffffffffff16021790555060408201518160020160006101000a81548173ffffffffffffffffffffffffffffffffffffffff021916908373ffffffffffffffffffffffffffffffffffffffff1602179055505050505050620003dd565b600080fd5b505050565b60028181548110620003f357600080fd5b90600052602060002090600302016000915090508060000154908060010160009054906101000a900473ffffffffffffffffffffffffffffffffffffffff16908060020160009054906101000a900473ffffffffffffffffffffffffffffffffffffffff16905083565b60016020528060005260406000206000915090508060000154908060010160009054906101000a900473ffffffffffffffffffffffffffffffffffffffff16908060020160009054906101000a900473ffffffffffffffffffffffffffffffffffffffff16905083565b60606002805480602002602001604051908101604052809291908181526020016000905b82821015620005d55783829060005260206000209060030201604051806060016040529081600082015481526020016001820160009054906101000a900473ffffffffffffffffffffffffffffffffffffffff1673ffffffffffffffffffffffffffffffffffffffff1673ffffffffffffffffffffffffffffffffffffffff1681526020016002820160009054906101000a900473ffffffffffffffffffffffffffffffffffffffff1673ffffffffffffffffffffffffffffffffffffffff1673ffffffffffffffffffffffffffffffffffffffff168152505081526020019060010190620004eb565b50505050905090565b6001816000016000828254019250508190555050565b600081600001549050919050565b6119448062000b3283390190565b6000620006276200062184620009b2565b6200097e565b9050828152602081018484840111156200064057600080fd5b6200064d84828562000a78565b509392505050565b600081359050620006668162000afd565b92915050565b600082601f8301126200067e57600080fd5b81356200069084826020860162000610565b91505092915050565b600081359050620006aa8162000b17565b92915050565b600080600060608486031215620006c657600080fd5b600084013567ffffffffffffffff811115620006e157600080fd5b620006ef868287016200066c565b9350506020620007028682870162000655565b9250506040620007158682870162000699565b9150509250925092565b6000602082840312156200073257600080fd5b6000620007428482850162000699565b91505092915050565b600062000759838362000832565b60608301905092915050565b620007708162000a3a565b82525050565b620007818162000a3a565b82525050565b60006200079482620009f5565b620007a0818562000a18565b9350620007ad83620009e5565b8060005b83811015620007e4578151620007c888826200074b565b9750620007d58362000a0b565b925050600181019050620007b1565b5085935050505092915050565b6000620007fe8262000a00565b6200080a818562000a29565b93506200081c81856020860162000a87565b620008278162000aec565b840191505092915050565b6060820160008201516200084a60008501826200087a565b5060208201516200085f602085018262000765565b50604082015162000874604085018262000765565b50505050565b620008858162000a6e565b82525050565b620008968162000a6e565b82525050565b600060a082019050620008b3600083018862000776565b8181036020830152620008c78187620007f1565b9050620008d8604083018662000776565b620008e7606083018562000776565b620008f660808301846200088b565b9695505050505050565b600060208201905081810360008301526200091c818462000787565b905092915050565b60006020820190506200093b60008301846200088b565b92915050565b60006060820190506200095860008301866200088b565b62000967602083018562000776565b62000976604083018462000776565b949350505050565b6000604051905081810181811067ffffffffffffffff82111715620009a857620009a762000abd565b5b8060405250919050565b600067ffffffffffffffff821115620009d057620009cf62000abd565b5b601f19601f8301169050602081019050919050565b6000819050602082019050919050565b600081519050919050565b600081519050919050565b6000602082019050919050565b600082825260208201905092915050565b600082825260208201905092915050565b600062000a478262000a4e565b9050919050565b600073ffffffffffffffffffffffffffffffffffffffff82169050919050565b6000819050919050565b82818337600083830152505050565b60005b8381101562000aa757808201518184015260208101905062000a8a565b8381111562000ab7576000848401525b50505050565b7f4e487b7100000000000000000000000000000000000000000000000000000000600052604160045260246000fd5b6000601f19601f8301169050919050565b62000b088162000a3a565b811462000b1457600080fd5b50565b62000b228162000a6e565b811462000b2e57600080fd5b5056fe608060405260405162001944380380620019448339818101604052810190620000299190620002e7565b84600160006101000a81548173ffffffffffffffffffffffffffffffffffffffff021916908373ffffffffffffffffffffffffffffffffffffffff1602179055503460048190555083600590805190602001906200008992919062000197565b506000600c60006101000a81548160ff02191690836002811115620000d7577f4e487b7100000000000000000000000000000000000000000000000000000000600052602160045260246000fd5b021790555082600660006101000a81548173ffffffffffffffffffffffffffffffffffffffff021916908373ffffffffffffffffffffffffffffffffffffffff160217905550600060078190555060006008819055506000808190555081600360006101000a81548173ffffffffffffffffffffffffffffffffffffffff021916908373ffffffffffffffffffffffffffffffffffffffff160217905550806009819055506001600a819055506063600b81905550505050505062000525565b828054620001a5906200045d565b90600052602060002090601f016020900481019282620001c9576000855562000215565b82601f10620001e457805160ff191683800117855562000215565b8280016001018555821562000215579182015b8281111562000214578251825591602001919060010190620001f7565b5b50905062000224919062000228565b5090565b5b808211156200024357600081600090555060010162000229565b5090565b60006200025e6200025884620003b6565b62000382565b9050828152602081018484840111156200027757600080fd5b6200028484828562000427565b509392505050565b6000815190506200029d81620004f1565b92915050565b600082601f830112620002b557600080fd5b8151620002c784826020860162000247565b91505092915050565b600081519050620002e1816200050b565b92915050565b600080600080600060a086880312156200030057600080fd5b600062000310888289016200028c565b955050602086015167ffffffffffffffff8111156200032e57600080fd5b6200033c88828901620002a3565b94505060406200034f888289016200028c565b935050606062000362888289016200028c565b92505060806200037588828901620002d0565b9150509295509295909350565b6000604051905081810181811067ffffffffffffffff82111715620003ac57620003ab620004c2565b5b8060405250919050565b600067ffffffffffffffff821115620003d457620003d3620004c2565b5b601f19601f8301169050602081019050919050565b6000620003f682620003fd565b9050919050565b600073ffffffffffffffffffffffffffffffffffffffff82169050919050565b6000819050919050565b60005b83811015620004475780820151818401526020810190506200042a565b8381111562000457576000848401525b50505050565b600060028204905060018216806200047657607f821691505b602082108114156200048d576200048c62000493565b5b50919050565b7f4e487b7100000000000000000000000000000000000000000000000000000000600052602260045260246000fd5b7f4e487b7100000000000000000000000000000000000000000000000000000000600052604160045260246000fd5b620004fc81620003e9565b81146200050857600080fd5b50565b62000516816200041d565b81146200052257600080fd5b50565b61140f80620005356000396000f3fe6080604052600436106100f35760003560e01c8063772d63541161008a578063c45a015511610059578063c45a0155146102b3578063d0b8a361146102de578063ddca3f4314610307578063e134e33d14610332576100f3565b8063772d63541461021b57806384de1ea51461024657806391f7b49314610271578063aa8c217c14610288576100f3565b8063489582e1116100c6578063489582e11461018357806357e871e7146101ae5780635c39fcc1146101d95780636a8dec5b14610204576100f3565b806312065fe0146100f85780631fa859e81461012357806326df57421461014e57806330bfcb5f14610179575b600080fd5b34801561010457600080fd5b5061010d61035d565b60405161011a9190611113565b60405180910390f35b34801561012f57600080fd5b50610138610365565b60405161014591906110d6565b60405180910390f35b34801561015a57600080fd5b5061016361037c565b6040516101709190611113565b60405180910390f35b610181610382565b005b34801561018f57600080fd5b50610198610520565b6040516101a59190611113565b60405180910390f35b3480156101ba57600080fd5b506101c3610526565b6040516101d09190611113565b60405180910390f35b3480156101e557600080fd5b506101ee61052c565b6040516101fb91906110bb565b60405180910390f35b34801561021057600080fd5b50610219610552565b005b34801561022757600080fd5b50610230610a62565b60405161023d91906110bb565b60405180910390f35b34801561025257600080fd5b5061025b610a88565b60405161026891906110bb565b60405180910390f35b34801561027d57600080fd5b50610286610ab2565b005b34801561029457600080fd5b5061029d610c60565b6040516102aa9190611113565b60405180910390f35b3480156102bf57600080fd5b506102c8610c66565b6040516102d591906110bb565b60405180910390f35b3480156102ea57600080fd5b506103056004803603810190610300919061102c565b610c8c565b005b34801561031357600080fd5b5061031c610f83565b6040516103299190611113565b60405180910390f35b34801561033e57600080fd5b50610347610f89565b60405161035491906110f1565b60405180910390f35b600047905090565b6000600c60009054906101000a900460ff16905090565b600b5481565b600160009054906101000a900473ffffffffffffffffffffffffffffffffffffffff1673ffffffffffffffffffffffffffffffffffffffff163373ffffffffffffffffffffffffffffffffffffffff16141580156103eb57506002476103e8919061114a565b34145b801561047657506000600281111561042c577f4e487b7100000000000000000000000000000000000000000000000000000000600052602160045260246000fd5b600c60009054906101000a900460ff166002811115610474577f4e487b7100000000000000000000000000000000000000000000000000000000600052602160045260246000fd5b145b15610519574360008190555033600260006101000a81548173ffffffffffffffffffffffffffffffffffffffff021916908373ffffffffffffffffffffffffffffffffffffffff1602179055506001600c60006101000a81548160ff0219169083600281111561050f577f4e487b7100000000000000000000000000000000000000000000000000000000600052602160045260246000fd5b021790555061051e565b600080fd5b565b600a5481565b60005481565b600160009054906101000a900473ffffffffffffffffffffffffffffffffffffffff1681565b60005460054361056291906111d5565b1061056c57600080fd5b600160009054906101000a900473ffffffffffffffffffffffffffffffffffffffff1673ffffffffffffffffffffffffffffffffffffffff163373ffffffffffffffffffffffffffffffffffffffff1614806106155750600260009054906101000a900473ffffffffffffffffffffffffffffffffffffffff1673ffffffffffffffffffffffffffffffffffffffff163373ffffffffffffffffffffffffffffffffffffffff16145b80156106705750600073ffffffffffffffffffffffffffffffffffffffff16600260009054906101000a900473ffffffffffffffffffffffffffffffffffffffff1673ffffffffffffffffffffffffffffffffffffffff1614155b61067957600080fd5b6000600160009054906101000a900473ffffffffffffffffffffffffffffffffffffffff1690506000600260009054906101000a900473ffffffffffffffffffffffffffffffffffffffff16905060016007541480156107265750600260009054906101000a900473ffffffffffffffffffffffffffffffffffffffff1673ffffffffffffffffffffffffffffffffffffffff163373ffffffffffffffffffffffffffffffffffffffff16145b156108235760016008819055508173ffffffffffffffffffffffffffffffffffffffff166108fc60024761075a919061114a565b9081150290604051600060405180830381858888f19350505050158015610785573d6000803e3d6000fd5b508073ffffffffffffffffffffffffffffffffffffffff166108fc479081150290604051600060405180830381858888f193505050501580156107cc573d6000803e3d6000fd5b506002600c60006101000a81548160ff02191690836002811115610819577f4e487b7100000000000000000000000000000000000000000000000000000000600052602160045260246000fd5b0217905550610a5e565b60016008541480156108825750600160009054906101000a900473ffffffffffffffffffffffffffffffffffffffff1673ffffffffffffffffffffffffffffffffffffffff163373ffffffffffffffffffffffffffffffffffffffff16145b1561097f5760016007819055508173ffffffffffffffffffffffffffffffffffffffff166108fc6002476108b6919061114a565b9081150290604051600060405180830381858888f193505050501580156108e1573d6000803e3d6000fd5b508073ffffffffffffffffffffffffffffffffffffffff166108fc479081150290604051600060405180830381858888f19350505050158015610928573d6000803e3d6000fd5b506002600c60006101000a81548160ff02191690836002811115610975577f4e487b7100000000000000000000000000000000000000000000000000000000600052602160045260246000fd5b0217905550610a5d565b600060075414801561099357506000600854145b15610a5c57600160009054906101000a900473ffffffffffffffffffffffffffffffffffffffff1673ffffffffffffffffffffffffffffffffffffffff163373ffffffffffffffffffffffffffffffffffffffff1614156109fb576001600781905550610a5b565b600260009054906101000a900473ffffffffffffffffffffffffffffffffffffffff1673ffffffffffffffffffffffffffffffffffffffff163373ffffffffffffffffffffffffffffffffffffffff161415610a5a5760016008819055505b5b5b5b5b5050565b600260009054906101000a900473ffffffffffffffffffffffffffffffffffffffff1681565b6000600160009054906101000a900473ffffffffffffffffffffffffffffffffffffffff16905090565b600160009054906101000a900473ffffffffffffffffffffffffffffffffffffffff1673ffffffffffffffffffffffffffffffffffffffff163373ffffffffffffffffffffffffffffffffffffffff1614610b0c57600080fd5b60006002811115610b46577f4e487b7100000000000000000000000000000000000000000000000000000000600052602160045260246000fd5b600c60009054906101000a900460ff166002811115610b8e577f4e487b7100000000000000000000000000000000000000000000000000000000600052602160045260246000fd5b1415610c59576000600160009054906101000a900473ffffffffffffffffffffffffffffffffffffffff1690508073ffffffffffffffffffffffffffffffffffffffff166108fc479081150290604051600060405180830381858888f19350505050158015610c01573d6000803e3d6000fd5b506002600c60006101000a81548160ff02191690836002811115610c4e577f4e487b7100000000000000000000000000000000000000000000000000000000600052602160045260246000fd5b021790555050610c5e565b600080fd5b565b60045481565b600360009054906101000a900473ffffffffffffffffffffffffffffffffffffffff1681565b600660009054906101000a900473ffffffffffffffffffffffffffffffffffffffff1673ffffffffffffffffffffffffffffffffffffffff163373ffffffffffffffffffffffffffffffffffffffff1614610ce657600080fd5b600b5460095411158015610cfe5750600a5460095410155b610d0757600080fd5b600047118015610d96575060016002811115610d4c577f4e487b7100000000000000000000000000000000000000000000000000000000600052602160045260246000fd5b600c60009054906101000a900460ff166002811115610d94577f4e487b7100000000000000000000000000000000000000000000000000000000600052602160045260246000fd5b145b610d9f57600080fd5b60006103e860095447610db2919061117b565b610dbc919061114a565b90506000600660009054906101000a900473ffffffffffffffffffffffffffffffffffffffff169050600160009054906101000a900473ffffffffffffffffffffffffffffffffffffffff1673ffffffffffffffffffffffffffffffffffffffff168373ffffffffffffffffffffffffffffffffffffffff161480610e8e5750600260009054906101000a900473ffffffffffffffffffffffffffffffffffffffff1673ffffffffffffffffffffffffffffffffffffffff168373ffffffffffffffffffffffffffffffffffffffff16145b15610f7e576002600c60006101000a81548160ff02191690836002811115610edf577f4e487b7100000000000000000000000000000000000000000000000000000000600052602160045260246000fd5b02179055508273ffffffffffffffffffffffffffffffffffffffff166108fc8347610f0a91906111d5565b9081150290604051600060405180830381858888f19350505050158015610f35573d6000803e3d6000fd5b508073ffffffffffffffffffffffffffffffffffffffff166108fc479081150290604051600060405180830381858888f19350505050158015610f7c573d6000803e3d6000fd5b505b505050565b60095481565b60058054610f96906112af565b80601f0160208091040260200160405190810160405280929190818152602001828054610fc2906112af565b801561100f5780601f10610fe45761010080835404028352916020019161100f565b820191906000526020600020905b815481529060010190602001808311610ff257829003601f168201915b505050505081565b600081359050611026816113c2565b92915050565b60006020828403121561103e57600080fd5b600061104c84828501611017565b91505092915050565b61105e81611209565b82525050565b61106d8161126a565b82525050565b600061107e8261112e565b6110888185611139565b935061109881856020860161127c565b6110a18161139d565b840191505092915050565b6110b581611260565b82525050565b60006020820190506110d06000830184611055565b92915050565b60006020820190506110eb6000830184611064565b92915050565b6000602082019050818103600083015261110b8184611073565b905092915050565b600060208201905061112860008301846110ac565b92915050565b600081519050919050565b600082825260208201905092915050565b600061115582611260565b915061116083611260565b9250826111705761116f611310565b5b828204905092915050565b600061118682611260565b915061119183611260565b9250817fffffffffffffffffffffffffffffffffffffffffffffffffffffffffffffffff04831182151516156111ca576111c96112e1565b5b828202905092915050565b60006111e082611260565b91506111eb83611260565b9250828210156111fe576111fd6112e1565b5b828203905092915050565b600061121482611240565b9050919050565b600061122682611240565b9050919050565b600081905061123b826113ae565b919050565b600073ffffffffffffffffffffffffffffffffffffffff82169050919050565b6000819050919050565b60006112758261122d565b9050919050565b60005b8381101561129a57808201518184015260208101905061127f565b838111156112a9576000848401525b50505050565b600060028204905060018216806112c757607f821691505b602082108114156112db576112da61136e565b5b50919050565b7f4e487b7100000000000000000000000000000000000000000000000000000000600052601160045260246000fd5b7f4e487b7100000000000000000000000000000000000000000000000000000000600052601260045260246000fd5b7f4e487b7100000000000000000000000000000000000000000000000000000000600052602160045260246000fd5b7f4e487b7100000000000000000000000000000000000000000000000000000000600052602260045260246000fd5b6000601f19601f8301169050919050565b600381106113bf576113be61133f565b5b50565b6113cb8161121b565b81146113d657600080fd5b5056fea2646970667358221220c33790ab1c58ed4cba95ca6a9df1a1192c6874c2d791f213b401dd591da5479264736f6c63430008000033a2646970667358221220a61eeb2808ebecb26acd2f6f934be02d0d39802ba1d8ae89984a3cf36435e38f64736f6c63430008000033",
  "immutableReferences": {},
  "source": "// SPDX-License-Identifier: GPL-3.0\r\n\r\npragma solidity ^0.8.0;\r\n\r\nimport \"./Bet.sol\";\r\nimport \"@openzeppelin/contracts/utils/Counters.sol\";\r\n\r\ncontract BetFactory {\r\n    using Counters for Counters.Counter;\r\n    Counters.Counter private _betId;\r\n    \r\n    constructor() public payable {}\r\n    \r\n    struct UserBet {\r\n        uint betIndex;\r\n        address initiator;\r\n        address location;\r\n    }\r\n    mapping(uint => UserBet) public _betIdToDetails;\r\n\r\n    UserBet[] public _userBets;\r\n\r\n    \r\n    function createBet(string memory _name, address _keyMaster, uint256 _fee) public payable {\r\n        require(msg.sender != _keyMaster);\r\n        \r\n        if(msg.value !=0){\r\n\r\n            Bet bet = new Bet{value:msg.value}(msg.sender, _name, _keyMaster, address(this), _fee);\r\n            _betId.increment();\r\n            uint256 newBetId = _betId.current();\r\n            \r\n\r\n            UserBet memory newUserBet = UserBet({\r\n                betIndex : newBetId,\r\n                initiator : msg.sender,\r\n                location : address(bet)\r\n\r\n            });\r\n            // Bet bet = new Bet(msg.sender, _name, _status );\r\n            _betIdToDetails[newBetId] = newUserBet;\r\n            _userBets.push(newUserBet);\r\n\r\n        } else {\r\n            revert();\r\n        }\r\n        \r\n\r\n    }\r\n    \r\n    function getBalance() public view returns(uint){\r\n        return address(this).balance;\r\n    }\r\n\r\n    function allBets() public view returns(UserBet[] memory) {\r\n        return _userBets;\r\n    }\r\n\r\n}",
  "sourcePath": "E:\\theBettor2\\contracts\\BetFactory.sol",
  "compiler": {
    "name": "solc",
    "version": "0.8.0+commit.c7dfd78e.Emscripten.clang"
  },
  "schemaVersion": "3.4.3",
  "updatedAt": "2022-07-01T11:30:33.547Z",
  "networkType": "ethereum",
  "devdoc": {
    "kind": "dev",
    "methods": {},
    "version": 1
  },
  "userdoc": {
    "kind": "user",
    "methods": {},
    "version": 1
  }
}