{
  "contractName": "BetFactory",
  "abi": [
    {
      "inputs": [],
      "stateMutability": "payable",
      "type": "constructor",
      "payable": true
    },
    {
      "inputs": [
        {
          "internalType": "uint256",
          "name": "",
          "type": "uint256"
        }
      ],
      "name": "_betIdToDetails",
      "outputs": [
        {
          "internalType": "uint256",
          "name": "betIndex",
          "type": "uint256"
        },
        {
          "internalType": "address",
          "name": "initiator",
          "type": "address"
        },
        {
          "internalType": "address",
          "name": "location",
          "type": "address"
        }
      ],
      "stateMutability": "view",
      "type": "function",
      "constant": true
    },
    {
      "inputs": [
        {
          "internalType": "uint256",
          "name": "",
          "type": "uint256"
        }
      ],
      "name": "_userBets",
      "outputs": [
        {
          "internalType": "uint256",
          "name": "betIndex",
          "type": "uint256"
        },
        {
          "internalType": "address",
          "name": "initiator",
          "type": "address"
        },
        {
          "internalType": "address",
          "name": "location",
          "type": "address"
        }
      ],
      "stateMutability": "view",
      "type": "function",
      "constant": true
    },
    {
      "inputs": [
        {
          "internalType": "string",
          "name": "_name",
          "type": "string"
        },
        {
          "internalType": "address",
          "name": "_keyMaster",
          "type": "address"
        },
        {
          "internalType": "uint256",
          "name": "_fee",
          "type": "uint256"
        }
      ],
      "name": "createBet",
      "outputs": [],
      "stateMutability": "payable",
      "type": "function",
      "payable": true
    },
    {
      "inputs": [],
      "name": "getBalance",
      "outputs": [
        {
          "internalType": "uint256",
          "name": "",
          "type": "uint256"
        }
      ],
      "stateMutability": "view",
      "type": "function",
      "constant": true
    },
    {
      "inputs": [],
      "name": "allBets",
      "outputs": [
        {
          "components": [
            {
              "internalType": "uint256",
              "name": "betIndex",
              "type": "uint256"
            },
            {
              "internalType": "address",
              "name": "initiator",
              "type": "address"
            },
            {
              "internalType": "address",
              "name": "location",
              "type": "address"
            }
          ],
          "internalType": "struct BetFactory.UserBet[]",
          "name": "",
          "type": "tuple[]"
        }
      ],
      "stateMutability": "view",
      "type": "function",
      "constant": true
    }
  ],
  "bytecode": "0x608060405261286d806100136000396000f3fe608060405260043610620000505760003560e01c806312065fe01462000055578063189949a91462000085578063d1b3e19c14620000a5578063d706c75614620000eb578063d73d6ec51462000131575b600080fd5b3480156200006257600080fd5b506200006d62000161565b6040516200007c919062000924565b60405180910390f35b620000a360048036038101906200009d9190620006b0565b62000169565b005b348015620000b257600080fd5b50620000d16004803603810190620000cb91906200071f565b620003e2565b604051620000e29392919062000941565b60405180910390f35b348015620000f857600080fd5b506200011760048036038101906200011191906200071f565b6200045d565b604051620001289392919062000941565b60405180910390f35b3480156200013e57600080fd5b5062000149620004c7565b60405162000158919062000900565b60405180910390f35b600047905090565b8173ffffffffffffffffffffffffffffffffffffffff163373ffffffffffffffffffffffffffffffffffffffff161415620001a357600080fd5b60003414620003d8576000343385853086604051620001c29062000602565b620001d29594939291906200089c565b6040518091039082f0905080158015620001f0573d6000803e3d6000fd5b509050620001ff6000620005de565b60006200020d6000620005f4565b9050600060405180606001604052808381526020013373ffffffffffffffffffffffffffffffffffffffff1681526020018473ffffffffffffffffffffffffffffffffffffffff16815250905080600160008481526020019081526020016000206000820151816000015560208201518160010160006101000a81548173ffffffffffffffffffffffffffffffffffffffff021916908373ffffffffffffffffffffffffffffffffffffffff16021790555060408201518160020160006101000a81548173ffffffffffffffffffffffffffffffffffffffff021916908373ffffffffffffffffffffffffffffffffffffffff16021790555090505060028190806001815401808255809150506001900390600052602060002090600302016000909190919091506000820151816000015560208201518160010160006101000a81548173ffffffffffffffffffffffffffffffffffffffff021916908373ffffffffffffffffffffffffffffffffffffffff16021790555060408201518160020160006101000a81548173ffffffffffffffffffffffffffffffffffffffff021916908373ffffffffffffffffffffffffffffffffffffffff1602179055505050505050620003dd565b600080fd5b505050565b60028181548110620003f357600080fd5b90600052602060002090600302016000915090508060000154908060010160009054906101000a900473ffffffffffffffffffffffffffffffffffffffff16908060020160009054906101000a900473ffffffffffffffffffffffffffffffffffffffff16905083565b60016020528060005260406000206000915090508060000154908060010160009054906101000a900473ffffffffffffffffffffffffffffffffffffffff16908060020160009054906101000a900473ffffffffffffffffffffffffffffffffffffffff16905083565b60606002805480602002602001604051908101604052809291908181526020016000905b82821015620005d55783829060005260206000209060030201604051806060016040529081600082015481526020016001820160009054906101000a900473ffffffffffffffffffffffffffffffffffffffff1673ffffffffffffffffffffffffffffffffffffffff1673ffffffffffffffffffffffffffffffffffffffff1681526020016002820160009054906101000a900473ffffffffffffffffffffffffffffffffffffffff1673ffffffffffffffffffffffffffffffffffffffff1673ffffffffffffffffffffffffffffffffffffffff168152505081526020019060010190620004eb565b50505050905090565b6001816000016000828254019250508190555050565b600081600001549050919050565b611d068062000b3283390190565b6000620006276200062184620009b2565b6200097e565b9050828152602081018484840111156200064057600080fd5b6200064d84828562000a78565b509392505050565b600081359050620006668162000afd565b92915050565b600082601f8301126200067e57600080fd5b81356200069084826020860162000610565b91505092915050565b600081359050620006aa8162000b17565b92915050565b600080600060608486031215620006c657600080fd5b600084013567ffffffffffffffff811115620006e157600080fd5b620006ef868287016200066c565b9350506020620007028682870162000655565b9250506040620007158682870162000699565b9150509250925092565b6000602082840312156200073257600080fd5b6000620007428482850162000699565b91505092915050565b600062000759838362000832565b60608301905092915050565b620007708162000a3a565b82525050565b620007818162000a3a565b82525050565b60006200079482620009f5565b620007a0818562000a18565b9350620007ad83620009e5565b8060005b83811015620007e4578151620007c888826200074b565b9750620007d58362000a0b565b925050600181019050620007b1565b5085935050505092915050565b6000620007fe8262000a00565b6200080a818562000a29565b93506200081c81856020860162000a87565b620008278162000aec565b840191505092915050565b6060820160008201516200084a60008501826200087a565b5060208201516200085f602085018262000765565b50604082015162000874604085018262000765565b50505050565b620008858162000a6e565b82525050565b620008968162000a6e565b82525050565b600060a082019050620008b3600083018862000776565b8181036020830152620008c78187620007f1565b9050620008d8604083018662000776565b620008e7606083018562000776565b620008f660808301846200088b565b9695505050505050565b600060208201905081810360008301526200091c818462000787565b905092915050565b60006020820190506200093b60008301846200088b565b92915050565b60006060820190506200095860008301866200088b565b62000967602083018562000776565b62000976604083018462000776565b949350505050565b6000604051905081810181811067ffffffffffffffff82111715620009a857620009a762000abd565b5b8060405250919050565b600067ffffffffffffffff821115620009d057620009cf62000abd565b5b601f19601f8301169050602081019050919050565b6000819050602082019050919050565b600081519050919050565b600081519050919050565b6000602082019050919050565b600082825260208201905092915050565b600082825260208201905092915050565b600062000a478262000a4e565b9050919050565b600073ffffffffffffffffffffffffffffffffffffffff82169050919050565b6000819050919050565b82818337600083830152505050565b60005b8381101562000aa757808201518184015260208101905062000a8a565b8381111562000ab7576000848401525b50505050565b7f4e487b7100000000000000000000000000000000000000000000000000000000600052604160045260246000fd5b6000601f19601f8301169050919050565b62000b088162000a3a565b811462000b1457600080fd5b50565b62000b228162000a6e565b811462000b2e57600080fd5b5056fe608060405260405162001d0638038062001d068339818101604052810190620000299190620002e7565b84600160006101000a81548173ffffffffffffffffffffffffffffffffffffffff021916908373ffffffffffffffffffffffffffffffffffffffff1602179055503460048190555083600590805190602001906200008992919062000197565b506000600c60006101000a81548160ff02191690836002811115620000d7577f4e487b7100000000000000000000000000000000000000000000000000000000600052602160045260246000fd5b021790555082600660006101000a81548173ffffffffffffffffffffffffffffffffffffffff021916908373ffffffffffffffffffffffffffffffffffffffff160217905550600060078190555060006008819055506000808190555081600360006101000a81548173ffffffffffffffffffffffffffffffffffffffff021916908373ffffffffffffffffffffffffffffffffffffffff160217905550806009819055506001600a819055506063600b81905550505050505062000525565b828054620001a5906200045d565b90600052602060002090601f016020900481019282620001c9576000855562000215565b82601f10620001e457805160ff191683800117855562000215565b8280016001018555821562000215579182015b8281111562000214578251825591602001919060010190620001f7565b5b50905062000224919062000228565b5090565b5b808211156200024357600081600090555060010162000229565b5090565b60006200025e6200025884620003b6565b62000382565b9050828152602081018484840111156200027757600080fd5b6200028484828562000427565b509392505050565b6000815190506200029d81620004f1565b92915050565b600082601f830112620002b557600080fd5b8151620002c784826020860162000247565b91505092915050565b600081519050620002e1816200050b565b92915050565b600080600080600060a086880312156200030057600080fd5b600062000310888289016200028c565b955050602086015167ffffffffffffffff8111156200032e57600080fd5b6200033c88828901620002a3565b94505060406200034f888289016200028c565b935050606062000362888289016200028c565b92505060806200037588828901620002d0565b9150509295509295909350565b6000604051905081810181811067ffffffffffffffff82111715620003ac57620003ab620004c2565b5b8060405250919050565b600067ffffffffffffffff821115620003d457620003d3620004c2565b5b601f19601f8301169050602081019050919050565b6000620003f682620003fd565b9050919050565b600073ffffffffffffffffffffffffffffffffffffffff82169050919050565b6000819050919050565b60005b83811015620004475780820151818401526020810190506200042a565b8381111562000457576000848401525b50505050565b600060028204905060018216806200047657607f821691505b602082108114156200048d576200048c62000493565b5b50919050565b7f4e487b7100000000000000000000000000000000000000000000000000000000600052602260045260246000fd5b7f4e487b7100000000000000000000000000000000000000000000000000000000600052604160045260246000fd5b620004fc81620003e9565b81146200050857600080fd5b50565b62000516816200041d565b81146200052257600080fd5b50565b6117d180620005356000396000f3fe6080604052600436106100f35760003560e01c8063772d63541161008a578063c45a015511610059578063c45a0155146102c7578063d0b8a361146102f2578063ddca3f431461031b578063e134e33d14610346576100f3565b8063772d63541461022f57806384de1ea51461025a57806391f7b49314610285578063aa8c217c1461029c576100f3565b8063489582e1116100c6578063489582e11461018357806357e871e7146101ae5780635c39fcc1146101d95780636a8dec5b14610204576100f3565b806312065fe0146100f85780631fa859e81461012357806326df57421461014e57806330bfcb5f14610179575b600080fd5b34801561010457600080fd5b5061010d610371565b60405161011a919061147e565b60405180910390f35b34801561012f57600080fd5b50610138610379565b60405161014591906113e1565b60405180910390f35b34801561015a57600080fd5b50610163610390565b604051610170919061147e565b60405180910390f35b610181610396565b005b34801561018f57600080fd5b5061019861058f565b6040516101a5919061147e565b60405180910390f35b3480156101ba57600080fd5b506101c3610595565b6040516101d0919061147e565b60405180910390f35b3480156101e557600080fd5b506101ee61059b565b6040516101fb91906113c6565b60405180910390f35b34801561021057600080fd5b506102196105c1565b60405161022691906113fc565b60405180910390f35b34801561023b57600080fd5b50610244610b43565b60405161025191906113c6565b60405180910390f35b34801561026657600080fd5b5061026f610b69565b60405161027c91906113c6565b60405180910390f35b34801561029157600080fd5b5061029a610b93565b005b3480156102a857600080fd5b506102b1610d41565b6040516102be919061147e565b60405180910390f35b3480156102d357600080fd5b506102dc610d47565b6040516102e991906113c6565b60405180910390f35b3480156102fe57600080fd5b506103196004803603810190610314919061122b565b610d6d565b005b34801561032757600080fd5b50610330611182565b60405161033d919061147e565b60405180910390f35b34801561035257600080fd5b5061035b611188565b60405161036891906113fc565b60405180910390f35b600047905090565b6000600c60009054906101000a900460ff16905090565b600b5481565b600660009054906101000a900473ffffffffffffffffffffffffffffffffffffffff1673ffffffffffffffffffffffffffffffffffffffff163373ffffffffffffffffffffffffffffffffffffffff1614156103f157600080fd5b600160009054906101000a900473ffffffffffffffffffffffffffffffffffffffff1673ffffffffffffffffffffffffffffffffffffffff163373ffffffffffffffffffffffffffffffffffffffff161415801561045a575060024761045791906114b5565b34145b80156104e557506000600281111561049b577f4e487b7100000000000000000000000000000000000000000000000000000000600052602160045260246000fd5b600c60009054906101000a900460ff1660028111156104e3577f4e487b7100000000000000000000000000000000000000000000000000000000600052602160045260246000fd5b145b15610588574360008190555033600260006101000a81548173ffffffffffffffffffffffffffffffffffffffff021916908373ffffffffffffffffffffffffffffffffffffffff1602179055506001600c60006101000a81548160ff0219169083600281111561057e577f4e487b7100000000000000000000000000000000000000000000000000000000600052602160045260246000fd5b021790555061058d565b600080fd5b565b600a5481565b60005481565b600160009054906101000a900473ffffffffffffffffffffffffffffffffffffffff1681565b60606000546005436105d39190611540565b10610613576040517f08c379a000000000000000000000000000000000000000000000000000000000815260040161060a9061143e565b60405180910390fd5b600160009054906101000a900473ffffffffffffffffffffffffffffffffffffffff1673ffffffffffffffffffffffffffffffffffffffff163373ffffffffffffffffffffffffffffffffffffffff1614806106bc5750600260009054906101000a900473ffffffffffffffffffffffffffffffffffffffff1673ffffffffffffffffffffffffffffffffffffffff163373ffffffffffffffffffffffffffffffffffffffff16145b80156107175750600073ffffffffffffffffffffffffffffffffffffffff16600260009054906101000a900473ffffffffffffffffffffffffffffffffffffffff1673ffffffffffffffffffffffffffffffffffffffff1614155b61072057600080fd5b6000600160009054906101000a900473ffffffffffffffffffffffffffffffffffffffff1690506000600260009054906101000a900473ffffffffffffffffffffffffffffffffffffffff16905060016007541480156107cd5750600260009054906101000a900473ffffffffffffffffffffffffffffffffffffffff1673ffffffffffffffffffffffffffffffffffffffff163373ffffffffffffffffffffffffffffffffffffffff16145b156108e75760016008819055508173ffffffffffffffffffffffffffffffffffffffff166108fc60024761080191906114b5565b9081150290604051600060405180830381858888f1935050505015801561082c573d6000803e3d6000fd5b508073ffffffffffffffffffffffffffffffffffffffff166108fc479081150290604051600060405180830381858888f19350505050158015610873573d6000803e3d6000fd5b506002600c60006101000a81548160ff021916908360028111156108c0577f4e487b7100000000000000000000000000000000000000000000000000000000600052602160045260246000fd5b02179055506040518060600160405280602b8152602001611745602b913992505050610b40565b60016008541480156109465750600160009054906101000a900473ffffffffffffffffffffffffffffffffffffffff1673ffffffffffffffffffffffffffffffffffffffff163373ffffffffffffffffffffffffffffffffffffffff16145b15610a605760016007819055508173ffffffffffffffffffffffffffffffffffffffff166108fc60024761097a91906114b5565b9081150290604051600060405180830381858888f193505050501580156109a5573d6000803e3d6000fd5b508073ffffffffffffffffffffffffffffffffffffffff166108fc479081150290604051600060405180830381858888f193505050501580156109ec573d6000803e3d6000fd5b506002600c60006101000a81548160ff02191690836002811115610a39577f4e487b7100000000000000000000000000000000000000000000000000000000600052602160045260246000fd5b02179055506040518060600160405280602c8152602001611770602c913992505050610b40565b6000600754148015610a7457506000600854145b15610b3d57600160009054906101000a900473ffffffffffffffffffffffffffffffffffffffff1673ffffffffffffffffffffffffffffffffffffffff163373ffffffffffffffffffffffffffffffffffffffff161415610adc576001600781905550610b3c565b600260009054906101000a900473ffffffffffffffffffffffffffffffffffffffff1673ffffffffffffffffffffffffffffffffffffffff163373ffffffffffffffffffffffffffffffffffffffff161415610b3b5760016008819055505b5b5b50505b90565b600260009054906101000a900473ffffffffffffffffffffffffffffffffffffffff1681565b6000600160009054906101000a900473ffffffffffffffffffffffffffffffffffffffff16905090565b600160009054906101000a900473ffffffffffffffffffffffffffffffffffffffff1673ffffffffffffffffffffffffffffffffffffffff163373ffffffffffffffffffffffffffffffffffffffff1614610bed57600080fd5b60006002811115610c27577f4e487b7100000000000000000000000000000000000000000000000000000000600052602160045260246000fd5b600c60009054906101000a900460ff166002811115610c6f577f4e487b7100000000000000000000000000000000000000000000000000000000600052602160045260246000fd5b1415610d3a576000600160009054906101000a900473ffffffffffffffffffffffffffffffffffffffff1690508073ffffffffffffffffffffffffffffffffffffffff166108fc479081150290604051600060405180830381858888f19350505050158015610ce2573d6000803e3d6000fd5b506002600c60006101000a81548160ff02191690836002811115610d2f577f4e487b7100000000000000000000000000000000000000000000000000000000600052602160045260246000fd5b021790555050610d3f565b600080fd5b565b60045481565b600360009054906101000a900473ffffffffffffffffffffffffffffffffffffffff1681565b600660009054906101000a900473ffffffffffffffffffffffffffffffffffffffff1673ffffffffffffffffffffffffffffffffffffffff163373ffffffffffffffffffffffffffffffffffffffff1614610dfd576040517f08c379a0000000000000000000000000000000000000000000000000000000008152600401610df49061145e565b60405180910390fd5b600b5460095411158015610e155750600a5460095410155b610e54576040517f08c379a0000000000000000000000000000000000000000000000000000000008152600401610e4b9061141e565b60405180910390fd5b600047118015610ee3575060016002811115610e99577f4e487b7100000000000000000000000000000000000000000000000000000000600052602160045260246000fd5b600c60009054906101000a900460ff166002811115610ee1577f4e487b7100000000000000000000000000000000000000000000000000000000600052602160045260246000fd5b145b610eec57600080fd5b600160009054906101000a900473ffffffffffffffffffffffffffffffffffffffff1673ffffffffffffffffffffffffffffffffffffffff168173ffffffffffffffffffffffffffffffffffffffff161480610f955750600260009054906101000a900473ffffffffffffffffffffffffffffffffffffffff1673ffffffffffffffffffffffffffffffffffffffff168173ffffffffffffffffffffffffffffffffffffffff16145b610f9e57600080fd5b60006103e860095447610fb191906114e6565b610fbb91906114b5565b90506000600660009054906101000a900473ffffffffffffffffffffffffffffffffffffffff169050600160009054906101000a900473ffffffffffffffffffffffffffffffffffffffff1673ffffffffffffffffffffffffffffffffffffffff168373ffffffffffffffffffffffffffffffffffffffff16148061108d5750600260009054906101000a900473ffffffffffffffffffffffffffffffffffffffff1673ffffffffffffffffffffffffffffffffffffffff168373ffffffffffffffffffffffffffffffffffffffff16145b1561117d576002600c60006101000a81548160ff021916908360028111156110de577f4e487b7100000000000000000000000000000000000000000000000000000000600052602160045260246000fd5b02179055508273ffffffffffffffffffffffffffffffffffffffff166108fc83476111099190611540565b9081150290604051600060405180830381858888f19350505050158015611134573d6000803e3d6000fd5b508073ffffffffffffffffffffffffffffffffffffffff166108fc479081150290604051600060405180830381858888f1935050505015801561117b573d6000803e3d6000fd5b505b505050565b60095481565b600580546111959061161a565b80601f01602080910402602001604051908101604052809291908181526020018280546111c19061161a565b801561120e5780601f106111e35761010080835404028352916020019161120e565b820191906000526020600020905b8154815290600101906020018083116111f157829003601f168201915b505050505081565b6000813590506112258161172d565b92915050565b60006020828403121561123d57600080fd5b600061124b84828501611216565b91505092915050565b61125d81611574565b82525050565b61126c816115d5565b82525050565b600061127d82611499565b61128781856114a4565b93506112978185602086016115e7565b6112a081611708565b840191505092915050565b60006112b8601f836114a4565b91507f4572726f722070726f63657373696e67206b65796d61737465722066656573006000830152602082019050919050565b60006112f8602b836114a4565b91507f496e73756666696369656e7420626c6f636b20646966666572656e63652c207060008301527f6c6561736520776169742e0000000000000000000000000000000000000000006020830152604082019050919050565b600061135e6021836114a4565b91507f4f6e6c7920746865206b65796d61737465722063616e2063616c6c207468697360008301527f2e000000000000000000000000000000000000000000000000000000000000006020830152604082019050919050565b6113c0816115cb565b82525050565b60006020820190506113db6000830184611254565b92915050565b60006020820190506113f66000830184611263565b92915050565b600060208201905081810360008301526114168184611272565b905092915050565b60006020820190508181036000830152611437816112ab565b9050919050565b60006020820190508181036000830152611457816112eb565b9050919050565b6000602082019050818103600083015261147781611351565b9050919050565b600060208201905061149360008301846113b7565b92915050565b600081519050919050565b600082825260208201905092915050565b60006114c0826115cb565b91506114cb836115cb565b9250826114db576114da61167b565b5b828204905092915050565b60006114f1826115cb565b91506114fc836115cb565b9250817fffffffffffffffffffffffffffffffffffffffffffffffffffffffffffffffff04831182151516156115355761153461164c565b5b828202905092915050565b600061154b826115cb565b9150611556836115cb565b9250828210156115695761156861164c565b5b828203905092915050565b600061157f826115ab565b9050919050565b6000611591826115ab565b9050919050565b60008190506115a682611719565b919050565b600073ffffffffffffffffffffffffffffffffffffffff82169050919050565b6000819050919050565b60006115e082611598565b9050919050565b60005b838110156116055780820151818401526020810190506115ea565b83811115611614576000848401525b50505050565b6000600282049050600182168061163257607f821691505b60208210811415611646576116456116d9565b5b50919050565b7f4e487b7100000000000000000000000000000000000000000000000000000000600052601160045260246000fd5b7f4e487b7100000000000000000000000000000000000000000000000000000000600052601260045260246000fd5b7f4e487b7100000000000000000000000000000000000000000000000000000000600052602160045260246000fd5b7f4e487b7100000000000000000000000000000000000000000000000000000000600052602260045260246000fd5b6000601f19601f8301169050919050565b6003811061172a576117296116aa565b5b50565b61173681611586565b811461174157600080fd5b5056fe46696e616c20766f746520627920616363657074696e672070617274792e20426574207265736f6c76656446696e616c20766f746520627920696e6974696174696e672070617274792e20426574207265736f6c766564a2646970667358221220e755f34952df4075dbaf7a8635867172d20ca8b97498334c22a8cbf7e97d972764736f6c63430008000033a2646970667358221220cdd028c29c82687cdf8fbc8b08e46b84054953b31bc9bc93b22b9bf01ca1828664736f6c63430008000033",
  "immutableReferences": {},
  "source": "// SPDX-License-Identifier: GPL-3.0\r\n\r\npragma solidity ^0.8.0;\r\n\r\nimport \"./Bet.sol\";\r\nimport \"@openzeppelin/contracts/utils/Counters.sol\";\r\n\r\ncontract BetFactory {\r\n    using Counters for Counters.Counter;\r\n    Counters.Counter private _betId;\r\n    \r\n    constructor() public payable {}\r\n\r\n    struct UserBet {\r\n        uint betIndex;\r\n        address initiator;\r\n        address location;\r\n    }\r\n    mapping(uint => UserBet) public _betIdToDetails;\r\n\r\n    UserBet[] public _userBets;\r\n    //This makes it all\r\n\r\n    \r\n    function createBet(string memory _name, address _keyMaster, uint256 _fee) public payable {\r\n        require(msg.sender != _keyMaster);\r\n        \r\n        if(msg.value !=0){\r\n\r\n            Bet bet = new Bet{value:msg.value}(msg.sender, _name, _keyMaster, address(this), _fee);\r\n            _betId.increment();\r\n            uint256 newBetId = _betId.current();\r\n            \r\n\r\n            UserBet memory newUserBet = UserBet({\r\n                betIndex : newBetId,\r\n                initiator : msg.sender,\r\n                location : address(bet)\r\n\r\n            });\r\n            // Bet bet = new Bet(msg.sender, _name, _status );\r\n            _betIdToDetails[newBetId] = newUserBet;\r\n            _userBets.push(newUserBet);\r\n\r\n        } else {\r\n            revert();\r\n        }\r\n        \r\n\r\n    }\r\n    \r\n    function getBalance() public view returns(uint){\r\n        return address(this).balance;\r\n    }\r\n\r\n    function allBets() public view returns(UserBet[] memory) {\r\n        return _userBets;\r\n    }\r\n\r\n}",
  "sourcePath": "E:\\bettor_box\\truffle\\contracts\\Factory.sol",
  "compiler": {
    "name": "solc",
    "version": "0.8.0+commit.c7dfd78e.Emscripten.clang"
  },
  "schemaVersion": "3.4.3",
  "updatedAt": "2022-10-26T12:02:09.531Z",
  "networkType": "ethereum",
  "devdoc": {
    "kind": "dev",
    "methods": {},
    "version": 1
  },
  "userdoc": {
    "kind": "user",
    "methods": {},
    "version": 1
  }
}